:02000000522884
:100006000230FC004930FD00FD0B0728FC0B0728D9
:06001600000000000800DC
:10001C002000A7012308F1000130F000710803193A
:10002C001A28F035FF3E15287008A6002108840018
:10003C002208850070080005F10071080130031DCD
:10004C000030F0002508F006031946282408003C6F
:10005C000318342803200320A4032C28210884002F
:10006C002208850026080005F10071080130031DE7
:10007C000030F0002508F00603194628FF30A700D1
:06008C002708F000080047
:1000920012001E00F003031D4928F103031D492825
:0200A200080054
:1000A4002200911321001D1023008C0172302100C5
:1000B4009900220098130A3021008C0020008C0142
:1000C40020100C30A1000030A2000130A300C83081
:1000D400A4000130A5000E20700803197228201412
:1000E400201C84280C30A1000030A2000130A300A1
:1000F400C830A400A5010E2070080319842801301B
:080104008C06201063288528F9
:020000040001F9
:04000E00E00E031FDE
:00000001FF
